{
	"contracts/SimpleProxy.sol": {
		"SimpleProxy": {
			"abi": [
				{
					"inputs": [
						{
							"internalType": "address",
							"name": "_implementation",
							"type": "address"
						}
					],
					"stateMutability": "nonpayable",
					"type": "constructor"
				},
				{
					"stateMutability": "payable",
					"type": "fallback"
				},
				{
					"inputs": [],
					"name": "implementation",
					"outputs": [
						{
							"internalType": "address",
							"name": "impl",
							"type": "address"
						}
					],
					"stateMutability": "view",
					"type": "function"
				},
				{
					"inputs": [
						{
							"internalType": "address",
							"name": "newImplementation",
							"type": "address"
						}
					],
					"name": "upgradeTo",
					"outputs": [],
					"stateMutability": "nonpayable",
					"type": "function"
				},
				{
					"stateMutability": "payable",
					"type": "receive"
				}
			],
			"devdoc": {
				"kind": "dev",
				"methods": {},
				"version": 1
			},
			"evm": {
				"assembly": "    /* \"contracts/SimpleProxy.sol\":25:1420  contract SimpleProxy {... */\n  mstore(0x40, 0x80)\n    /* \"contracts/SimpleProxy.sol\":282:371  constructor(address _implementation) {... */\n  callvalue\n  dup1\n  iszero\n  tag_1\n  jumpi\n  revert(0x00, 0x00)\ntag_1:\n  pop\n  mload(0x40)\n  sub(codesize, bytecodeSize)\n  dup1\n  bytecodeSize\n  dup4\n  codecopy\n  dup2\n  dup2\n  add\n  0x40\n  mstore\n  dup2\n  add\n  swap1\n  tag_2\n  swap2\n  swap1\n  tag_3\n  jump\t// in\ntag_2:\n    /* \"contracts/SimpleProxy.sol\":329:364  _setImplementation(_implementation) */\n  tag_6\n    /* \"contracts/SimpleProxy.sol\":348:363  _implementation */\n  dup2\n    /* \"contracts/SimpleProxy.sol\":329:347  _setImplementation */\n  shl(0x20, tag_7)\n    /* \"contracts/SimpleProxy.sol\":329:364  _setImplementation(_implementation) */\n  0x20\n  shr\n  jump\t// in\ntag_6:\n    /* \"contracts/SimpleProxy.sol\":282:371  constructor(address _implementation) {... */\n  pop\n    /* \"contracts/SimpleProxy.sol\":25:1420  contract SimpleProxy {... */\n  jump(tag_8)\n    /* \"contracts/SimpleProxy.sol\":669:856  function _setImplementation(address newImplementation) private {... */\ntag_7:\n    /* \"contracts/SimpleProxy.sol\":742:754  bytes32 slot */\n  0x00\n    /* \"contracts/SimpleProxy.sol\":209:275  0x360894a13ba1a3210667c828492db98dca3e2076cc3735a920a3ca505d382bbc */\n  0x360894a13ba1a3210667c828492db98dca3e2076cc3735a920a3ca505d382bbc\n    /* \"contracts/SimpleProxy.sol\":757:776  IMPLEMENTATION_SLOT */\n  0x00\n  shl\n    /* \"contracts/SimpleProxy.sol\":742:776  bytes32 slot = IMPLEMENTATION_SLOT */\n  swap1\n  pop\n    /* \"contracts/SimpleProxy.sol\":822:839  newImplementation */\n  dup2\n    /* \"contracts/SimpleProxy.sol\":816:820  slot */\n  dup2\n    /* \"contracts/SimpleProxy.sol\":809:840  sstore(slot, newImplementation) */\n  sstore\n    /* \"contracts/SimpleProxy.sol\":795:850  {... */\n  pop\n    /* \"contracts/SimpleProxy.sol\":669:856  function _setImplementation(address newImplementation) private {... */\n  pop\n  jump\t// out\n    /* \"#utility.yul\":88:205   */\ntag_11:\n    /* \"#utility.yul\":197:198   */\n  0x00\n    /* \"#utility.yul\":194:195   */\n  0x00\n    /* \"#utility.yul\":187:199   */\n  revert\n    /* \"#utility.yul\":334:460   */\ntag_13:\n    /* \"#utility.yul\":371:378   */\n  0x00\n    /* \"#utility.yul\":411:453   */\n  0xffffffffffffffffffffffffffffffffffffffff\n    /* \"#utility.yul\":404:409   */\n  dup3\n    /* \"#utility.yul\":400:454   */\n  and\n    /* \"#utility.yul\":389:454   */\n  swap1\n  pop\n    /* \"#utility.yul\":334:460   */\n  swap2\n  swap1\n  pop\n  jump\t// out\n    /* \"#utility.yul\":466:562   */\ntag_14:\n    /* \"#utility.yul\":503:510   */\n  0x00\n    /* \"#utility.yul\":532:556   */\n  tag_23\n    /* \"#utility.yul\":550:555   */\n  dup3\n    /* \"#utility.yul\":532:556   */\n  tag_13\n  jump\t// in\ntag_23:\n    /* \"#utility.yul\":521:556   */\n  swap1\n  pop\n    /* \"#utility.yul\":466:562   */\n  swap2\n  swap1\n  pop\n  jump\t// out\n    /* \"#utility.yul\":568:690   */\ntag_15:\n    /* \"#utility.yul\":641:665   */\n  tag_25\n    /* \"#utility.yul\":659:664   */\n  dup2\n    /* \"#utility.yul\":641:665   */\n  tag_14\n  jump\t// in\ntag_25:\n    /* \"#utility.yul\":634:639   */\n  dup2\n    /* \"#utility.yul\":631:666   */\n  eq\n    /* \"#utility.yul\":621:684   */\n  tag_26\n  jumpi\n    /* \"#utility.yul\":680:681   */\n  0x00\n    /* \"#utility.yul\":677:678   */\n  0x00\n    /* \"#utility.yul\":670:682   */\n  revert\n    /* \"#utility.yul\":621:684   */\ntag_26:\n    /* \"#utility.yul\":568:690   */\n  pop\n  jump\t// out\n    /* \"#utility.yul\":696:839   */\ntag_16:\n    /* \"#utility.yul\":753:758   */\n  0x00\n    /* \"#utility.yul\":784:790   */\n  dup2\n    /* \"#utility.yul\":778:791   */\n  mload\n    /* \"#utility.yul\":769:791   */\n  swap1\n  pop\n    /* \"#utility.yul\":800:833   */\n  tag_28\n    /* \"#utility.yul\":827:832   */\n  dup2\n    /* \"#utility.yul\":800:833   */\n  tag_15\n  jump\t// in\ntag_28:\n    /* \"#utility.yul\":696:839   */\n  swap3\n  swap2\n  pop\n  pop\n  jump\t// out\n    /* \"#utility.yul\":845:1196   */\ntag_3:\n    /* \"#utility.yul\":915:921   */\n  0x00\n    /* \"#utility.yul\":964:966   */\n  0x20\n    /* \"#utility.yul\":952:961   */\n  dup3\n    /* \"#utility.yul\":943:950   */\n  dup5\n    /* \"#utility.yul\":939:962   */\n  sub\n    /* \"#utility.yul\":935:967   */\n  slt\n    /* \"#utility.yul\":932:1051   */\n  iszero\n  tag_30\n  jumpi\n    /* \"#utility.yul\":970:1049   */\n  tag_31\n  tag_11\n  jump\t// in\ntag_31:\n    /* \"#utility.yul\":932:1051   */\ntag_30:\n    /* \"#utility.yul\":1090:1091   */\n  0x00\n    /* \"#utility.yul\":1115:1179   */\n  tag_32\n    /* \"#utility.yul\":1171:1178   */\n  dup5\n    /* \"#utility.yul\":1162:1168   */\n  dup3\n    /* \"#utility.yul\":1151:1160   */\n  dup6\n    /* \"#utility.yul\":1147:1169   */\n  add\n    /* \"#utility.yul\":1115:1179   */\n  tag_16\n  jump\t// in\ntag_32:\n    /* \"#utility.yul\":1105:1179   */\n  swap2\n  pop\n    /* \"#utility.yul\":1061:1189   */\n  pop\n    /* \"#utility.yul\":845:1196   */\n  swap3\n  swap2\n  pop\n  pop\n  jump\t// out\n    /* \"contracts/SimpleProxy.sol\":25:1420  contract SimpleProxy {... */\ntag_8:\n  dataSize(sub_0)\n  dup1\n  dataOffset(sub_0)\n  0x00\n  codecopy\n  0x00\n  return\nstop\n\nsub_0: assembly {\n        /* \"contracts/SimpleProxy.sol\":25:1420  contract SimpleProxy {... */\n      mstore(0x40, 0x80)\n      jumpi(tag_1, lt(calldatasize, 0x04))\n      shr(0xe0, calldataload(0x00))\n      dup1\n      0x3659cfe6\n      eq\n      tag_3\n      jumpi\n      dup1\n      0x5c60da1b\n      eq\n      tag_4\n      jumpi\n      jump(tag_2)\n    tag_1:\n      jumpi(tag_2, calldatasize)\n      stop\n    tag_2:\n        /* \"contracts/SimpleProxy.sol\":900:912  address impl */\n      0x00\n        /* \"contracts/SimpleProxy.sol\":915:931  implementation() */\n      tag_9\n        /* \"contracts/SimpleProxy.sol\":915:929  implementation */\n      tag_10\n        /* \"contracts/SimpleProxy.sol\":915:931  implementation() */\n      jump\t// in\n    tag_9:\n        /* \"contracts/SimpleProxy.sol\":900:931  address impl = implementation() */\n      swap1\n      pop\n        /* \"contracts/SimpleProxy.sol\":965:966  0 */\n      0x00\n        /* \"contracts/SimpleProxy.sol\":949:967  impl != address(0) */\n      0xffffffffffffffffffffffffffffffffffffffff\n      and\n        /* \"contracts/SimpleProxy.sol\":949:953  impl */\n      dup2\n        /* \"contracts/SimpleProxy.sol\":949:967  impl != address(0) */\n      0xffffffffffffffffffffffffffffffffffffffff\n      and\n      sub\n        /* \"contracts/SimpleProxy.sol\":941:993  require(impl != address(0), \"No implementation set\") */\n      tag_11\n      jumpi\n      mload(0x40)\n      0x08c379a000000000000000000000000000000000000000000000000000000000\n      dup2\n      mstore\n      0x04\n      add\n      tag_12\n      swap1\n      tag_13\n      jump\t// in\n    tag_12:\n      mload(0x40)\n      dup1\n      swap2\n      sub\n      swap1\n      revert\n    tag_11:\n        /* \"contracts/SimpleProxy.sol\":1043:1047  0x40 */\n      0x40\n        /* \"contracts/SimpleProxy.sol\":1037:1048  mload(0x40) */\n      mload\n        /* \"contracts/SimpleProxy.sol\":1082:1096  calldatasize() */\n      calldatasize\n        /* \"contracts/SimpleProxy.sol\":1079:1080  0 */\n      0x00\n        /* \"contracts/SimpleProxy.sol\":1074:1077  ptr */\n      dup3\n        /* \"contracts/SimpleProxy.sol\":1061:1097  calldatacopy(ptr, 0, calldatasize()) */\n      calldatacopy\n        /* \"contracts/SimpleProxy.sol\":1174:1175  0 */\n      0x00\n        /* \"contracts/SimpleProxy.sol\":1171:1172  0 */\n      0x00\n        /* \"contracts/SimpleProxy.sol\":1155:1169  calldatasize() */\n      calldatasize\n        /* \"contracts/SimpleProxy.sol\":1150:1153  ptr */\n      dup4\n        /* \"contracts/SimpleProxy.sol\":1144:1148  impl */\n      dup6\n        /* \"contracts/SimpleProxy.sol\":1137:1142  gas() */\n      gas\n        /* \"contracts/SimpleProxy.sol\":1124:1176  delegatecall(gas(), impl, ptr, calldatasize(), 0, 0) */\n      delegatecall\n        /* \"contracts/SimpleProxy.sol\":1201:1217  returndatasize() */\n      returndatasize\n        /* \"contracts/SimpleProxy.sol\":1253:1257  size */\n      dup1\n        /* \"contracts/SimpleProxy.sol\":1250:1251  0 */\n      0x00\n        /* \"contracts/SimpleProxy.sol\":1245:1248  ptr */\n      dup5\n        /* \"contracts/SimpleProxy.sol\":1230:1258  returndatacopy(ptr, 0, size) */\n      returndatacopy\n        /* \"contracts/SimpleProxy.sol\":1278:1284  result */\n      dup2\n        /* \"contracts/SimpleProxy.sol\":1302:1303  0 */\n      0x00\n        /* \"contracts/SimpleProxy.sol\":1297:1325  case 0 { revert(ptr, size) } */\n      dup2\n      eq\n      tag_15\n      jumpi\n        /* \"contracts/SimpleProxy.sol\":1360:1364  size */\n      dup2\n        /* \"contracts/SimpleProxy.sol\":1355:1358  ptr */\n      dup5\n        /* \"contracts/SimpleProxy.sol\":1348:1365  return(ptr, size) */\n      return\n        /* \"contracts/SimpleProxy.sol\":1297:1325  case 0 { revert(ptr, size) } */\n    tag_15:\n        /* \"contracts/SimpleProxy.sol\":1318:1322  size */\n      dup2\n        /* \"contracts/SimpleProxy.sol\":1313:1316  ptr */\n      dup5\n        /* \"contracts/SimpleProxy.sol\":1306:1323  revert(ptr, size) */\n      revert\n        /* \"contracts/SimpleProxy.sol\":556:663  function upgradeTo(address newImplementation) public {... */\n    tag_3:\n      callvalue\n      dup1\n      iszero\n      tag_16\n      jumpi\n      revert(0x00, 0x00)\n    tag_16:\n      pop\n      tag_17\n      0x04\n      dup1\n      calldatasize\n      sub\n      dup2\n      add\n      swap1\n      tag_18\n      swap2\n      swap1\n      tag_19\n      jump\t// in\n    tag_18:\n      tag_20\n      jump\t// in\n    tag_17:\n      stop\n        /* \"contracts/SimpleProxy.sol\":377:550  function implementation() public view returns (address impl) {... */\n    tag_4:\n      callvalue\n      dup1\n      iszero\n      tag_21\n      jumpi\n      revert(0x00, 0x00)\n    tag_21:\n      pop\n      tag_22\n      tag_10\n      jump\t// in\n    tag_22:\n      mload(0x40)\n      tag_23\n      swap2\n      swap1\n      tag_24\n      jump\t// in\n    tag_23:\n      mload(0x40)\n      dup1\n      swap2\n      sub\n      swap1\n      return\n    tag_10:\n        /* \"contracts/SimpleProxy.sol\":424:436  address impl */\n      0x00\n        /* \"contracts/SimpleProxy.sol\":448:460  bytes32 slot */\n      0x00\n        /* \"contracts/SimpleProxy.sol\":209:275  0x360894a13ba1a3210667c828492db98dca3e2076cc3735a920a3ca505d382bbc */\n      0x360894a13ba1a3210667c828492db98dca3e2076cc3735a920a3ca505d382bbc\n        /* \"contracts/SimpleProxy.sol\":463:482  IMPLEMENTATION_SLOT */\n      0x00\n      shl\n        /* \"contracts/SimpleProxy.sol\":448:482  bytes32 slot = IMPLEMENTATION_SLOT */\n      swap1\n      pop\n        /* \"contracts/SimpleProxy.sol\":529:533  slot */\n      dup1\n        /* \"contracts/SimpleProxy.sol\":523:534  sload(slot) */\n      sload\n        /* \"contracts/SimpleProxy.sol\":515:534  impl := sload(slot) */\n      swap2\n      pop\n        /* \"contracts/SimpleProxy.sol\":501:544  {... */\n      pop\n        /* \"contracts/SimpleProxy.sol\":377:550  function implementation() public view returns (address impl) {... */\n      swap1\n      jump\t// out\n        /* \"contracts/SimpleProxy.sol\":556:663  function upgradeTo(address newImplementation) public {... */\n    tag_20:\n        /* \"contracts/SimpleProxy.sol\":619:656  _setImplementation(newImplementation) */\n      tag_27\n        /* \"contracts/SimpleProxy.sol\":638:655  newImplementation */\n      dup2\n        /* \"contracts/SimpleProxy.sol\":619:637  _setImplementation */\n      tag_28\n        /* \"contracts/SimpleProxy.sol\":619:656  _setImplementation(newImplementation) */\n      jump\t// in\n    tag_27:\n        /* \"contracts/SimpleProxy.sol\":556:663  function upgradeTo(address newImplementation) public {... */\n      pop\n      jump\t// out\n        /* \"contracts/SimpleProxy.sol\":669:856  function _setImplementation(address newImplementation) private {... */\n    tag_28:\n        /* \"contracts/SimpleProxy.sol\":742:754  bytes32 slot */\n      0x00\n        /* \"contracts/SimpleProxy.sol\":209:275  0x360894a13ba1a3210667c828492db98dca3e2076cc3735a920a3ca505d382bbc */\n      0x360894a13ba1a3210667c828492db98dca3e2076cc3735a920a3ca505d382bbc\n        /* \"contracts/SimpleProxy.sol\":757:776  IMPLEMENTATION_SLOT */\n      0x00\n      shl\n        /* \"contracts/SimpleProxy.sol\":742:776  bytes32 slot = IMPLEMENTATION_SLOT */\n      swap1\n      pop\n        /* \"contracts/SimpleProxy.sol\":822:839  newImplementation */\n      dup2\n        /* \"contracts/SimpleProxy.sol\":816:820  slot */\n      dup2\n        /* \"contracts/SimpleProxy.sol\":809:840  sstore(slot, newImplementation) */\n      sstore\n        /* \"contracts/SimpleProxy.sol\":795:850  {... */\n      pop\n        /* \"contracts/SimpleProxy.sol\":669:856  function _setImplementation(address newImplementation) private {... */\n      pop\n      jump\t// out\n        /* \"#utility.yul\":7:176   */\n    tag_30:\n        /* \"#utility.yul\":91:102   */\n      0x00\n        /* \"#utility.yul\":125:131   */\n      dup3\n        /* \"#utility.yul\":120:123   */\n      dup3\n        /* \"#utility.yul\":113:132   */\n      mstore\n        /* \"#utility.yul\":165:169   */\n      0x20\n        /* \"#utility.yul\":160:163   */\n      dup3\n        /* \"#utility.yul\":156:170   */\n      add\n        /* \"#utility.yul\":141:170   */\n      swap1\n      pop\n        /* \"#utility.yul\":7:176   */\n      swap3\n      swap2\n      pop\n      pop\n      jump\t// out\n        /* \"#utility.yul\":182:353   */\n    tag_31:\n        /* \"#utility.yul\":322:345   */\n      0x4e6f20696d706c656d656e746174696f6e207365740000000000000000000000\n        /* \"#utility.yul\":318:319   */\n      0x00\n        /* \"#utility.yul\":310:316   */\n      dup3\n        /* \"#utility.yul\":306:320   */\n      add\n        /* \"#utility.yul\":299:346   */\n      mstore\n        /* \"#utility.yul\":182:353   */\n      pop\n      jump\t// out\n        /* \"#utility.yul\":359:725   */\n    tag_32:\n        /* \"#utility.yul\":501:504   */\n      0x00\n        /* \"#utility.yul\":522:589   */\n      tag_45\n        /* \"#utility.yul\":586:588   */\n      0x15\n        /* \"#utility.yul\":581:584   */\n      dup4\n        /* \"#utility.yul\":522:589   */\n      tag_30\n      jump\t// in\n    tag_45:\n        /* \"#utility.yul\":515:589   */\n      swap2\n      pop\n        /* \"#utility.yul\":598:691   */\n      tag_46\n        /* \"#utility.yul\":687:690   */\n      dup3\n        /* \"#utility.yul\":598:691   */\n      tag_31\n      jump\t// in\n    tag_46:\n        /* \"#utility.yul\":716:718   */\n      0x20\n        /* \"#utility.yul\":711:714   */\n      dup3\n        /* \"#utility.yul\":707:719   */\n      add\n        /* \"#utility.yul\":700:719   */\n      swap1\n      pop\n        /* \"#utility.yul\":359:725   */\n      swap2\n      swap1\n      pop\n      jump\t// out\n        /* \"#utility.yul\":731:1150   */\n    tag_13:\n        /* \"#utility.yul\":897:901   */\n      0x00\n        /* \"#utility.yul\":935:937   */\n      0x20\n        /* \"#utility.yul\":924:933   */\n      dup3\n        /* \"#utility.yul\":920:938   */\n      add\n        /* \"#utility.yul\":912:938   */\n      swap1\n      pop\n        /* \"#utility.yul\":984:993   */\n      dup2\n        /* \"#utility.yul\":978:982   */\n      dup2\n        /* \"#utility.yul\":974:994   */\n      sub\n        /* \"#utility.yul\":970:971   */\n      0x00\n        /* \"#utility.yul\":959:968   */\n      dup4\n        /* \"#utility.yul\":955:972   */\n      add\n        /* \"#utility.yul\":948:995   */\n      mstore\n        /* \"#utility.yul\":1012:1143   */\n      tag_48\n        /* \"#utility.yul\":1138:1142   */\n      dup2\n        /* \"#utility.yul\":1012:1143   */\n      tag_32\n      jump\t// in\n    tag_48:\n        /* \"#utility.yul\":1004:1143   */\n      swap1\n      pop\n        /* \"#utility.yul\":731:1150   */\n      swap2\n      swap1\n      pop\n      jump\t// out\n        /* \"#utility.yul\":1237:1354   */\n    tag_34:\n        /* \"#utility.yul\":1346:1347   */\n      0x00\n        /* \"#utility.yul\":1343:1344   */\n      0x00\n        /* \"#utility.yul\":1336:1348   */\n      revert\n        /* \"#utility.yul\":1483:1609   */\n    tag_36:\n        /* \"#utility.yul\":1520:1527   */\n      0x00\n        /* \"#utility.yul\":1560:1602   */\n      0xffffffffffffffffffffffffffffffffffffffff\n        /* \"#utility.yul\":1553:1558   */\n      dup3\n        /* \"#utility.yul\":1549:1603   */\n      and\n        /* \"#utility.yul\":1538:1603   */\n      swap1\n      pop\n        /* \"#utility.yul\":1483:1609   */\n      swap2\n      swap1\n      pop\n      jump\t// out\n        /* \"#utility.yul\":1615:1711   */\n    tag_37:\n        /* \"#utility.yul\":1652:1659   */\n      0x00\n        /* \"#utility.yul\":1681:1705   */\n      tag_54\n        /* \"#utility.yul\":1699:1704   */\n      dup3\n        /* \"#utility.yul\":1681:1705   */\n      tag_36\n      jump\t// in\n    tag_54:\n        /* \"#utility.yul\":1670:1705   */\n      swap1\n      pop\n        /* \"#utility.yul\":1615:1711   */\n      swap2\n      swap1\n      pop\n      jump\t// out\n        /* \"#utility.yul\":1717:1839   */\n    tag_38:\n        /* \"#utility.yul\":1790:1814   */\n      tag_56\n        /* \"#utility.yul\":1808:1813   */\n      dup2\n        /* \"#utility.yul\":1790:1814   */\n      tag_37\n      jump\t// in\n    tag_56:\n        /* \"#utility.yul\":1783:1788   */\n      dup2\n        /* \"#utility.yul\":1780:1815   */\n      eq\n        /* \"#utility.yul\":1770:1833   */\n      tag_57\n      jumpi\n        /* \"#utility.yul\":1829:1830   */\n      0x00\n        /* \"#utility.yul\":1826:1827   */\n      0x00\n        /* \"#utility.yul\":1819:1831   */\n      revert\n        /* \"#utility.yul\":1770:1833   */\n    tag_57:\n        /* \"#utility.yul\":1717:1839   */\n      pop\n      jump\t// out\n        /* \"#utility.yul\":1845:1984   */\n    tag_39:\n        /* \"#utility.yul\":1891:1896   */\n      0x00\n        /* \"#utility.yul\":1929:1935   */\n      dup2\n        /* \"#utility.yul\":1916:1936   */\n      calldataload\n        /* \"#utility.yul\":1907:1936   */\n      swap1\n      pop\n        /* \"#utility.yul\":1945:1978   */\n      tag_59\n        /* \"#utility.yul\":1972:1977   */\n      dup2\n        /* \"#utility.yul\":1945:1978   */\n      tag_38\n      jump\t// in\n    tag_59:\n        /* \"#utility.yul\":1845:1984   */\n      swap3\n      swap2\n      pop\n      pop\n      jump\t// out\n        /* \"#utility.yul\":1990:2319   */\n    tag_19:\n        /* \"#utility.yul\":2049:2055   */\n      0x00\n        /* \"#utility.yul\":2098:2100   */\n      0x20\n        /* \"#utility.yul\":2086:2095   */\n      dup3\n        /* \"#utility.yul\":2077:2084   */\n      dup5\n        /* \"#utility.yul\":2073:2096   */\n      sub\n        /* \"#utility.yul\":2069:2101   */\n      slt\n        /* \"#utility.yul\":2066:2185   */\n      iszero\n      tag_61\n      jumpi\n        /* \"#utility.yul\":2104:2183   */\n      tag_62\n      tag_34\n      jump\t// in\n    tag_62:\n        /* \"#utility.yul\":2066:2185   */\n    tag_61:\n        /* \"#utility.yul\":2224:2225   */\n      0x00\n        /* \"#utility.yul\":2249:2302   */\n      tag_63\n        /* \"#utility.yul\":2294:2301   */\n      dup5\n        /* \"#utility.yul\":2285:2291   */\n      dup3\n        /* \"#utility.yul\":2274:2283   */\n      dup6\n        /* \"#utility.yul\":2270:2292   */\n      add\n        /* \"#utility.yul\":2249:2302   */\n      tag_39\n      jump\t// in\n    tag_63:\n        /* \"#utility.yul\":2239:2302   */\n      swap2\n      pop\n        /* \"#utility.yul\":2195:2312   */\n      pop\n        /* \"#utility.yul\":1990:2319   */\n      swap3\n      swap2\n      pop\n      pop\n      jump\t// out\n        /* \"#utility.yul\":2325:2443   */\n    tag_40:\n        /* \"#utility.yul\":2412:2436   */\n      tag_65\n        /* \"#utility.yul\":2430:2435   */\n      dup2\n        /* \"#utility.yul\":2412:2436   */\n      tag_37\n      jump\t// in\n    tag_65:\n        /* \"#utility.yul\":2407:2410   */\n      dup3\n        /* \"#utility.yul\":2400:2437   */\n      mstore\n        /* \"#utility.yul\":2325:2443   */\n      pop\n      pop\n      jump\t// out\n        /* \"#utility.yul\":2449:2671   */\n    tag_24:\n        /* \"#utility.yul\":2542:2546   */\n      0x00\n        /* \"#utility.yul\":2580:2582   */\n      0x20\n        /* \"#utility.yul\":2569:2578   */\n      dup3\n        /* \"#utility.yul\":2565:2583   */\n      add\n        /* \"#utility.yul\":2557:2583   */\n      swap1\n      pop\n        /* \"#utility.yul\":2593:2664   */\n      tag_67\n        /* \"#utility.yul\":2661:2662   */\n      0x00\n        /* \"#utility.yul\":2650:2659   */\n      dup4\n        /* \"#utility.yul\":2646:2663   */\n      add\n        /* \"#utility.yul\":2637:2643   */\n      dup5\n        /* \"#utility.yul\":2593:2664   */\n      tag_40\n      jump\t// in\n    tag_67:\n        /* \"#utility.yul\":2449:2671   */\n      swap3\n      swap2\n      pop\n      pop\n      jump\t// out\n\n    auxdata: 0xa264697066735822122096c0c9794b3daaebddbb66acd505dea02cb84b7c2beb0f772360510bd3326d3664736f6c634300081e0033\n}\n",
				"bytecode": {
					"linkReferences": {},
					"object": "608060405234801561000f575f5ffd5b506040516103f13803806103f1833981810160405281019061003191906100d1565b6100408161004660201b60201c565b506100fc565b5f7f360894a13ba1a3210667c828492db98dca3e2076cc3735a920a3ca505d382bbc5f1b90508181555050565b5f5ffd5b5f73ffffffffffffffffffffffffffffffffffffffff82169050919050565b5f6100a082610077565b9050919050565b6100b081610096565b81146100ba575f5ffd5b50565b5f815190506100cb816100a7565b92915050565b5f602082840312156100e6576100e5610073565b5b5f6100f3848285016100bd565b91505092915050565b6102e8806101095f395ff3fe60806040526004361061002c575f3560e01c80633659cfe6146100cf5780635c60da1b146100f757610033565b3661003357005b5f61003c610121565b90505f73ffffffffffffffffffffffffffffffffffffffff168173ffffffffffffffffffffffffffffffffffffffff16036100ac576040517f08c379a00000000000000000000000000000000000000000000000000000000081526004016100a3906101e3565b60405180910390fd5b604051365f82375f5f3683855af43d805f843e815f81146100cb578184f35b8184fd5b3480156100da575f5ffd5b506100f560048036038101906100f0919061025f565b610150565b005b348015610102575f5ffd5b5061010b610121565b6040516101189190610299565b60405180910390f35b5f5f7f360894a13ba1a3210667c828492db98dca3e2076cc3735a920a3ca505d382bbc5f1b9050805491505090565b6101598161015c565b50565b5f7f360894a13ba1a3210667c828492db98dca3e2076cc3735a920a3ca505d382bbc5f1b90508181555050565b5f82825260208201905092915050565b7f4e6f20696d706c656d656e746174696f6e2073657400000000000000000000005f82015250565b5f6101cd601583610189565b91506101d882610199565b602082019050919050565b5f6020820190508181035f8301526101fa816101c1565b9050919050565b5f5ffd5b5f73ffffffffffffffffffffffffffffffffffffffff82169050919050565b5f61022e82610205565b9050919050565b61023e81610224565b8114610248575f5ffd5b50565b5f8135905061025981610235565b92915050565b5f6020828403121561027457610273610201565b5b5f6102818482850161024b565b91505092915050565b61029381610224565b82525050565b5f6020820190506102ac5f83018461028a565b9291505056fea264697066735822122096c0c9794b3daaebddbb66acd505dea02cb84b7c2beb0f772360510bd3326d3664736f6c634300081e0033",
					"opcodes": "PUSH1 0x80 PUSH1 0x40 MSTORE CALLVALUE DUP1 ISZERO PUSH2 0xF JUMPI PUSH0 PUSH0 REVERT JUMPDEST POP PUSH1 0x40 MLOAD PUSH2 0x3F1 CODESIZE SUB DUP1 PUSH2 0x3F1 DUP4 CODECOPY DUP2 DUP2 ADD PUSH1 0x40 MSTORE DUP2 ADD SWAP1 PUSH2 0x31 SWAP2 SWAP1 PUSH2 0xD1 JUMP JUMPDEST PUSH2 0x40 DUP2 PUSH2 0x46 PUSH1 0x20 SHL PUSH1 0x20 SHR JUMP JUMPDEST POP PUSH2 0xFC JUMP JUMPDEST PUSH0 PUSH32 0x360894A13BA1A3210667C828492DB98DCA3E2076CC3735A920A3CA505D382BBC PUSH0 SHL SWAP1 POP DUP2 DUP2 SSTORE POP POP JUMP JUMPDEST PUSH0 PUSH0 REVERT JUMPDEST PUSH0 PUSH20 0xFFFFFFFFFFFFFFFFFFFFFFFFFFFFFFFFFFFFFFFF DUP3 AND SWAP1 POP SWAP2 SWAP1 POP JUMP JUMPDEST PUSH0 PUSH2 0xA0 DUP3 PUSH2 0x77 JUMP JUMPDEST SWAP1 POP SWAP2 SWAP1 POP JUMP JUMPDEST PUSH2 0xB0 DUP2 PUSH2 0x96 JUMP JUMPDEST DUP2 EQ PUSH2 0xBA JUMPI PUSH0 PUSH0 REVERT JUMPDEST POP JUMP JUMPDEST PUSH0 DUP2 MLOAD SWAP1 POP PUSH2 0xCB DUP2 PUSH2 0xA7 JUMP JUMPDEST SWAP3 SWAP2 POP POP JUMP JUMPDEST PUSH0 PUSH1 0x20 DUP3 DUP5 SUB SLT ISZERO PUSH2 0xE6 JUMPI PUSH2 0xE5 PUSH2 0x73 JUMP JUMPDEST JUMPDEST PUSH0 PUSH2 0xF3 DUP5 DUP3 DUP6 ADD PUSH2 0xBD JUMP JUMPDEST SWAP2 POP POP SWAP3 SWAP2 POP POP JUMP JUMPDEST PUSH2 0x2E8 DUP1 PUSH2 0x109 PUSH0 CODECOPY PUSH0 RETURN INVALID PUSH1 0x80 PUSH1 0x40 MSTORE PUSH1 0x4 CALLDATASIZE LT PUSH2 0x2C JUMPI PUSH0 CALLDATALOAD PUSH1 0xE0 SHR DUP1 PUSH4 0x3659CFE6 EQ PUSH2 0xCF JUMPI DUP1 PUSH4 0x5C60DA1B EQ PUSH2 0xF7 JUMPI PUSH2 0x33 JUMP JUMPDEST CALLDATASIZE PUSH2 0x33 JUMPI STOP JUMPDEST PUSH0 PUSH2 0x3C PUSH2 0x121 JUMP JUMPDEST SWAP1 POP PUSH0 PUSH20 0xFFFFFFFFFFFFFFFFFFFFFFFFFFFFFFFFFFFFFFFF AND DUP2 PUSH20 0xFFFFFFFFFFFFFFFFFFFFFFFFFFFFFFFFFFFFFFFF AND SUB PUSH2 0xAC JUMPI PUSH1 0x40 MLOAD PUSH32 0x8C379A000000000000000000000000000000000000000000000000000000000 DUP2 MSTORE PUSH1 0x4 ADD PUSH2 0xA3 SWAP1 PUSH2 0x1E3 JUMP JUMPDEST PUSH1 0x40 MLOAD DUP1 SWAP2 SUB SWAP1 REVERT JUMPDEST PUSH1 0x40 MLOAD CALLDATASIZE PUSH0 DUP3 CALLDATACOPY PUSH0 PUSH0 CALLDATASIZE DUP4 DUP6 GAS DELEGATECALL RETURNDATASIZE DUP1 PUSH0 DUP5 RETURNDATACOPY DUP2 PUSH0 DUP2 EQ PUSH2 0xCB JUMPI DUP2 DUP5 RETURN JUMPDEST DUP2 DUP5 REVERT JUMPDEST CALLVALUE DUP1 ISZERO PUSH2 0xDA JUMPI PUSH0 PUSH0 REVERT JUMPDEST POP PUSH2 0xF5 PUSH1 0x4 DUP1 CALLDATASIZE SUB DUP2 ADD SWAP1 PUSH2 0xF0 SWAP2 SWAP1 PUSH2 0x25F JUMP JUMPDEST PUSH2 0x150 JUMP JUMPDEST STOP JUMPDEST CALLVALUE DUP1 ISZERO PUSH2 0x102 JUMPI PUSH0 PUSH0 REVERT JUMPDEST POP PUSH2 0x10B PUSH2 0x121 JUMP JUMPDEST PUSH1 0x40 MLOAD PUSH2 0x118 SWAP2 SWAP1 PUSH2 0x299 JUMP JUMPDEST PUSH1 0x40 MLOAD DUP1 SWAP2 SUB SWAP1 RETURN JUMPDEST PUSH0 PUSH0 PUSH32 0x360894A13BA1A3210667C828492DB98DCA3E2076CC3735A920A3CA505D382BBC PUSH0 SHL SWAP1 POP DUP1 SLOAD SWAP2 POP POP SWAP1 JUMP JUMPDEST PUSH2 0x159 DUP2 PUSH2 0x15C JUMP JUMPDEST POP JUMP JUMPDEST PUSH0 PUSH32 0x360894A13BA1A3210667C828492DB98DCA3E2076CC3735A920A3CA505D382BBC PUSH0 SHL SWAP1 POP DUP2 DUP2 SSTORE POP POP JUMP JUMPDEST PUSH0 DUP3 DUP3 MSTORE PUSH1 0x20 DUP3 ADD SWAP1 POP SWAP3 SWAP2 POP POP JUMP JUMPDEST PUSH32 0x4E6F20696D706C656D656E746174696F6E207365740000000000000000000000 PUSH0 DUP3 ADD MSTORE POP JUMP JUMPDEST PUSH0 PUSH2 0x1CD PUSH1 0x15 DUP4 PUSH2 0x189 JUMP JUMPDEST SWAP2 POP PUSH2 0x1D8 DUP3 PUSH2 0x199 JUMP JUMPDEST PUSH1 0x20 DUP3 ADD SWAP1 POP SWAP2 SWAP1 POP JUMP JUMPDEST PUSH0 PUSH1 0x20 DUP3 ADD SWAP1 POP DUP2 DUP2 SUB PUSH0 DUP4 ADD MSTORE PUSH2 0x1FA DUP2 PUSH2 0x1C1 JUMP JUMPDEST SWAP1 POP SWAP2 SWAP1 POP JUMP JUMPDEST PUSH0 PUSH0 REVERT JUMPDEST PUSH0 PUSH20 0xFFFFFFFFFFFFFFFFFFFFFFFFFFFFFFFFFFFFFFFF DUP3 AND SWAP1 POP SWAP2 SWAP1 POP JUMP JUMPDEST PUSH0 PUSH2 0x22E DUP3 PUSH2 0x205 JUMP JUMPDEST SWAP1 POP SWAP2 SWAP1 POP JUMP JUMPDEST PUSH2 0x23E DUP2 PUSH2 0x224 JUMP JUMPDEST DUP2 EQ PUSH2 0x248 JUMPI PUSH0 PUSH0 REVERT JUMPDEST POP JUMP JUMPDEST PUSH0 DUP2 CALLDATALOAD SWAP1 POP PUSH2 0x259 DUP2 PUSH2 0x235 JUMP JUMPDEST SWAP3 SWAP2 POP POP JUMP JUMPDEST PUSH0 PUSH1 0x20 DUP3 DUP5 SUB SLT ISZERO PUSH2 0x274 JUMPI PUSH2 0x273 PUSH2 0x201 JUMP JUMPDEST JUMPDEST PUSH0 PUSH2 0x281 DUP5 DUP3 DUP6 ADD PUSH2 0x24B JUMP JUMPDEST SWAP2 POP POP SWAP3 SWAP2 POP POP JUMP JUMPDEST PUSH2 0x293 DUP2 PUSH2 0x224 JUMP JUMPDEST DUP3 MSTORE POP POP JUMP JUMPDEST PUSH0 PUSH1 0x20 DUP3 ADD SWAP1 POP PUSH2 0x2AC PUSH0 DUP4 ADD DUP5 PUSH2 0x28A JUMP JUMPDEST SWAP3 SWAP2 POP POP JUMP INVALID LOG2 PUSH5 0x6970667358 0x22 SLT KECCAK256 SWAP7 0xC0 0xC9 PUSH26 0x4B3DAAEBDDBB66ACD505DEA02CB84B7C2BEB0F772360510BD332 PUSH14 0x3664736F6C634300081E00330000 "
				},
				"gasEstimates": {
					"creation": {
						"codeDepositCost": "148800",
						"executionCost": "infinite",
						"totalCost": "infinite"
					},
					"external": {
						"": "infinite",
						"implementation()": "2497",
						"upgradeTo(address)": "22579"
					},
					"internal": {
						"_setImplementation(address)": "22134"
					}
				},
				"methodIdentifiers": {
					"implementation()": "5c60da1b",
					"upgradeTo(address)": "3659cfe6"
				}
			},
			"storageLayout": {
				"storage": [],
				"types": null
			},
			"userdoc": {
				"kind": "user",
				"methods": {},
				"version": 1
			}
		}
	}
}